:100000000C94BA030C94E4030C94E4030C94D40809
:100010000C94E4030C94E4030C94E4030C94E403C4
:100020000C94E4030C94E4030C94E4030C94E403B4
:100030000C94E4030C94E4030C94E4030C94E403A4
:100040000C94E4030C94E4030C94E4030C94E40394
:100050000C94E4030C94E4030C94E4030C94EA0F72
:100060000C94E4030C94EE0E0C94240F0C94E40313
:100070000C94E4030C94E4030C94E4030C94E40364
:100080000C94E4030C94E4030C94E4030C94E40354
:100090000C94E4030C94E4030C94E4030C94E40344
:1000A0000C94E4030C94E4030C94E4030C94E40334
:1000B0000C94E4030C94E4030C94E4030C94E40324
:1000C0000C94E4030C94E4030C94E4030C94E40314
:1000D0000C94E4030C94E4030C94E4030C94E40304
:1000E0000C94E4030C94E4030C94E4030C94E403F4
:1000F0000C94E4030C94E4030C94E4030C94E403E4
:100100000C94E4030C94E4030C94E4030C94E403D3
:100110000C94E4030C94E4030C94E4030C94E403C3
:1001200010111311021106110C114A1117111B1194
:100130002111251129112F11331137114A113D11A8
:10014000411145110000000000000000065F06009C
:1001500000070300070300247E247E2400242B6A6A
:1001600012000063130864630036495620500000F3
:100170000703000000003E4100000000413E000077
:1001800000083E1C3E080008083E08080000E06029
:100190000000000808080808000060600000002057
:1001A00010080402003E5149453E0000427F4000D5
:1001B0000062514949460022494949360018141243
:1001C0007F10002F49494931003C4A49493000011C
:1001D0007109050300364949493600064949291E77
:1001E00000006C6C00000000EC6C000000081422A1
:1001F0004100002424242424000041221408000289
:1002000001590906003E415D551E007E1111117E07
:10021000007F49494936003E41414122007F41412A
:10022000413E007F49494941007F09090901003EDB
:100230004149497A007F0808087F0000417F41005A
:1002400000304040403F007F08142241007F404082
:100250004040007F0204027F007F0204087F003ECE
:100260004141413E007F09090906003E4151215E9E
:10027000007F090919660026494949320001017FBA
:100280000101003F4040403F001F2040201F003F31
:10029000403C403F006314081463000708700807DF
:1002A00000714945430000007F41410000020408FD
:1002B0001020000041417F00000402010204008080
:1002C0008080808000000307000000205454547890
:1002D000007F4444443800384444442800384444AF
:1002E000447F00385454540800087E09090000185F
:1002F000A4A4A47C007F040478000000007D4000DA
:10030000004080847D00007F102844000000007FB2
:100310004000007C04180478007C04047800003855
:100320004444443800FC444444380038444444FCC9
:1003300000447844040800085454542000043E4407
:100340002400003C40207C00001C2040201C003C7D
:100350006030603C006C10106C00009CA0603C00A1
:10036000006454544C0000083E41410000000077F6
:100370000000000041413E08000201020100003C73
:100380002623263C00000000000000000000065F5D
:100390005F0600000007070007070000147F7F14B6
:1003A0007F7F1400242E2A6B6B3A120046663018A9
:1003B0000C666200307A4F5D377A4800000407030C
:1003C00000000000001C3E63410000000041633E4D
:1003D0001C000000082A3E1C1C3E2A080008083E9B
:1003E0003E080800000080E06000000000080808E7
:1003F0000808080000000060600000006030180C71
:10040000060301003E7F594D477F3E0040427F7FFB
:1004100040400000627359496F66000022634949F9
:100420007F360000181C16537F7F50002767454514
:100430007D3900003C7E4B4979300000030371791F
:100440000F070000367F49497F360000064F496993
:100450003F1E00000000006666000000000080E60D
:1004600066000000081C36634100000000141414EC
:1004700014141400004163361C08000000020359E4
:100480005D0702003E7F415D5D5F0E007C7E1313C1
:100490007E7C0000417F7F49497F36001C3E6341DE
:1004A00041632200417F7F41633E1C00417F7F49C1
:1004B0005D416300417F7F491D0103001C3E634194
:1004C000513372007F7F08087F7F000000417F7FEB
:1004D00041000000307040417F3F0100417F7F08B4
:1004E0001C776300417F7F41406070007F7F0E1C5E
:1004F0000E7F7F007F7F060C187F7F001C3E6341CC
:10050000633E1C00417F7F49090F06001E3F2131D9
:10051000617F5E00417F7F09197F6600266F4D492C
:100520005973320003417F7F410300007F7F4040C9
:100530007F7F00001F3F60603F1F00003F7F6030F3
:10054000607F3F0063771C081C776300074F787853
:100550004F070000476371594D677300007F7F416B
:10056000410000000103060C183060000041417F8B
:100570007F000000080C0603060C080080808080C5
:100580008080808000000307040000002074545421
:100590003C784000417F3F4848783000387C4444F4
:1005A0006C280000307848493F7F4000387C545424
:1005B0005C180000487E7F490306000098BCA4A494
:1005C000F87C0400417F7F08047C780000447D7D36
:1005D0004000000060E08084FD7D0000417F7F10CE
:1005E000386C440000417F7F400000007C7C18781C
:1005F0001C7C78007C7804047C780000387C4444BF
:100600007C38000084FCF8A4243C1800183C24A486
:10061000F8FC8400447C784C040C1800485C54744A
:100620006424000004043E7F442400003C7C4040DD
:100630003C7C40001C3C60603C1C00003C7C60300A
:10064000607C3C00446C3810386C44009CBCA0A01A
:10065000FC7C00004C64745C4C64000008083E772D
:100660004141000000000077770000004141773EE3
:1006700008080000020301030203010070784C46E1
:100680004C7870000101637801110128633203C0C6
:10069000F80002C30402C40502D01D02B30002B573
:1006A0008B0138023A0202360002B09F05F01212A6
:1006B00012120120012900000000090A0B000003AA
:1006C0000700000000000000000002000000000021
:1006D00000000000000000000004050102040810F2
:1006E00020408020100104080202010102042004BD
:1006F000081020408001020408102040804080053E
:1007000005050505050505020202020202040407AB
:100710000707070404040404040606060606060682
:10072000060202000000000000260029002C002F15
:100730000032000000000000000000000000000087
:1007400000250000002B002E0031003400000000C6
:100750000000000000000000000000240000002A4B
:10076000002D0030003300000000000000000000F9
:100770000000580F11241FBECFEFD1E4DEBFCDBF64
:1007800013E0A0E0B2E0E2E1F5E200E00BBF02C05E
:1007900007900D92A835B107D9F72AE0A8E5B3E094
:1007A00001C01D92A038B207E1F713E0CAEBD3E015
:1007B00004C02197FE010E942A12C93BD107C9F744
:1007C0000E94DB0F0C9487120C94000010925E03C1
:1007D00010925D0310925C0310925B0310925A0317
:1007E000109259031092580380E2EFE5F3E0DF0125
:1007F0001D928A95E9F708958F929F92AF92BF92CA
:10080000CF92DF92EF92FF920F931F93CF93DF93DC
:10081000673921EC720729E882072AE7920709F471
:1008200081C097FF4CC0DC01CB01BF774C015D015B
:100830007BE0B694A794979487947A95D1F74091EA
:10084000580350915903E0915B03F0915C032091B0
:100850005A03A3E1B0E03196750164010A2E04C089
:10086000F694E794D794C7940A94D2F781E0C8220B
:10087000DD2466E0CC0CDD1C6A95E1F725952C297A
:10088000E730F10579F4FA013196EA01C15ADC4FFB
:100890002883E032F10514F0E0E0F0E0AF0120E061
:1008A000E0E0F0E01197B8F65093590340935803F5
:1008B000F0935C03E0935B0320935A0333C00091F1
:1008C0005D0310915E031595079507701127012EA2
:1008D000000C220B330B6B017C014AE0F694E79489
:1008E000D794C7944A95D1F748EFC4224FE1E42248
:1008F000FF240C291D292E293F29009380031093E2
:1009000081032093820330938303DC01CB015BE0FE
:10091000B695A795979587955A95D1F7682F6370E7
:1009200060937F0380915D0390915E0301969093A5
:100930005E0380935D03DF91CF911F910F91FF9034
:10094000EF90DF90CF90BF90AF909F908F900895E1
:10095000EF92FF920F931F9326E040E855E260E08C
:1009600070E08AED99E00E94890E42EA50E066ED5F
:1009700070E087EE90E00E949F0C6EEB72E08AEDD3
:1009800099E00E94C80FE12CF12C03E010E023E075
:1009900030E043ED52E060E070E080E090E00E94E3
:1009A000E90923E030E04CED52E068E270E080E0DD
:1009B00090E00E94E90963E082EC99E00E94D6068B
:1009C00064E670E080E090E00E94591082EC99E0CB
:1009D0001F910F91FF90EF900C94990763E082ECC8
:1009E00099E00E94D60664E670E080E090E00E9404
:1009F0005910E6E8F3E001900020E9F73197AF01E4
:100A00004658534066E873E082EC99E00E94710713
:100A100063E082EC99E00E94D60682EC99E00C94A7
:100A20009907CF93DF9320E034E0DB01E9011D92C9
:100A30002197E9F7009769F14115510551F14130CE
:100A4000D2E05D0710F04FEF51E0FB01DC01840FB5
:100A5000951F9D01CD91D0E0689413F8D595C79569
:100A60001694E1F7CA51DD4FC881C083E90128819E
:100A7000C22FCF70D0E0CA51DD4F2881218332963A
:100A8000A817B90731F7440F551FFB01E40FF51FF5
:100A90001082DF91CF910895EF92FF920F931F93F1
:100AA000CF93DF930E944F0D882309F448C0209113
:100AB000840330918503F901EA57FC4F80832F5F4F
:100AC0003F4F3093850320938403853069F40E945F
:100AD000EE048CE3E6E8F3E0DF011D928A95E9F786
:100AE0001092850310928403809184039091850372
:100AF00045976CF00E94EE048CE3E6E8F3E0DF013A
:100B00001D928A95E9F71092850310928403E12CD7
:100B1000F12C03E010E023E030E047EF52E064E125
:100B200070E080E090E00E94E90923E030E046E8D0
:100B300053E064E170E080E090E00E94E90982EC1B
:100B400099E00E949C07882309F491C062EC77E049
:100B500082EC99E00E94AA07482F50E04115510508
:100B600009F47BC0FA01EE53F84F108262EC73E097
:100B700082EC97E00E94110562EC73E08AED99E047
:100B80000E94C80F0E94E603C5ECD7E069917991F5
:100B9000899199910E9433126095709580959095F6
:100BA0000E94FC03B8E0C130DB0781F780917F032E
:100BB000833009F052C06091000270910102E12C73
:100BC000F12C03E010E023E030E047EF52E080E05A
:100BD00090E00E94E90980E092E0E2ECF7E0DF01BA
:100BE0009C011D9221503040E1F76091800370918B
:100BF000810380918203909183032AE0AF010E94D8
:100C0000551260E273E082EC97E00E944A126FE5B1
:100C100073E082EC97E00E944A1262EC77E08AED82
:100C200099E00E94C80F609100027091010223E0D8
:100C300030E042EC57E080E090E00E94E9098091CA
:100C400000029091010244968536910514F08CE3E0
:100C500090E0909301028093000282EC99E0DF9192
:100C6000CF911F910F91FF90EF900C949907DF9116
:100C7000CF911F910F91FF90EF9008951CBC6F7260
:100C800060656CBD8DB58EB50895CF93DF93EC0193
:100C900061E08DE00E944B1161E08BE00E944B11FE
:100CA00060E08CE00E944B1161E08AE00E944B11F1
:100CB00060E0CE01DF91CF910C943E066EBD0DB485
:100CC00007FEFDCF8EB5089560E085E10C944B11D1
:100CD000CF93DF93EC0160E08AE00E94871161E02E
:100CE00070E080E090E00E94591061E08AE00E948C
:100CF000871161E070E080E090E00E94591060E0B0
:100D00008AE00E94871160E3CE010E945E0661E0E6
:100D10008AE0DF91CF910C9487110F931F93CF93AB
:100D2000DF93EC01062F142F60E08AE00E94871108
:100D3000602FCE010E945E06612FCE010E945E06EA
:100D400061E08AE0DF91CF911F910F910C948711A0
:100D5000DF92EF92FF920F931F93CF93DF938C015B
:100D6000C62FD42EE52EF22E60E08AE00E94871175
:100D70006C2F6064C8010E945E06CD2DDE2DCE0171
:100D80008F0D911D7C01CE15DF0529F06991C801F9
:100D90000E945E06F8CF61E08AE0DF91CF911F915B
:100DA0000F91FF90EF90DF900C948711CF93DF931A
:100DB000EC010E944506CE010E94640661E08AE0D3
:100DC0000E94871161E08DE00E94871160E08BE056
:100DD0000E948711CE010E94680628E042E052E09E
:100DE0006EE3CE01DF91CF910C94A8061F93CF93B1
:100DF000DF93EC01162F60E08AE00E948711612FDB
:100E0000CE010E945E0661E08AE0DF91CF911F91E2
:100E10000C9487110F931F93CF938C01C62F60E022
:100E20008AE00E9487116C2F6068C8010E945E06EC
:100E300060E0C8010E945E06C82F61E08AE00E945F
:100E400087118C2FCF911F910F910895DF92EF9210
:100E5000FF920F931F93CF93DF938C01C62FD42E55
:100E6000E52EF22E60E08AE00E9487116C2F606C04
:100E7000C8010E945E06CD2DDE2DCE018F0D911D85
:100E80007C01CE15DF0531F060E0C8010E945E06EE
:100E90008993F7CF61E08AE0DF91CF911F910F91A5
:100EA000FF90EF90DF900C9487110F931F93CF93D7
:100EB0008C01C62F60E08AE00E9487116C2F606C65
:100EC000C8010E945E0660E0C8010E945E06C82F4D
:100ED00061E08AE00E9487118C2FCF911F910F91C2
:100EE0000895EF92FF921F93CF93DF93EC017B0164
:100EF000142F6FE30E948D06212FA7016FE3CE010F
:100F00000E94A80665E3CE010E94F60685E10E94D4
:100F1000B611892BD9F385E10E94B611892BD9F737
:100F20006BE3CE01DF91CF911F91FF90EF900C9476
:100F3000F60664E30C94F60685E10E94B611892B4F
:100F400039F085E10E94B611892BD9F781E0089527
:100F500080E00895CF92DF92EF92FF921F93CF939C
:100F6000DF9300D0CDB7DEB77C016B016BE30E944D
:100F70005507182F1F7799F06FE3C7010E940A07E2
:100F8000182F282FA6016FE3C7010E94260722E031
:100F9000AE014F5F5F4F6FE3C7010E9426076AE310
:100FA000C7010E94F606812F0F900F90DF91CF911D
:100FB0001F91FF90EF90DF90CF900895982FFB0145
:100FC000DA018770907F903D19F128F4903A41F052
:100FD000903B91F00895903E39F1903F89F108954A
:100FE000232B19F424E330E002C022E330E02D93F8
:100FF0003C9323E330E02FC0232B19F425E230E0AB
:1010000002C023E230E02D933C9324E230E023C081
:10101000232B19F42BE230E002C029E230E02D93BB
:101020003C932AE230E017C0232B19F42EE230E083
:1010300002C02CE230E02D933C932DE230E00BC057
:10104000232B19F421E330E002C02FE230E02D938E
:101050003C9320E330E03183208308951F93CF93A6
:10106000DF9300D000D0CDB7DEB7162F20E030E000
:10107000AE014D5F5F4FBE016F5F7F4F0E94DE0785
:10108000113061F1E0F01230B9F5E981FA81408167
:1010900021E030E0B90102C0660F771F8A95E2F7C0
:1010A000CB01942F982B9083EB81FC819081982B1E
:1010B0009083E981FA819081809589231CC0E98120
:1010C000FA81408121E030E0B90102C0660F771F4C
:1010D0008A95E2F7CB01809584230DC0E981FA81DE
:1010E000408121E030E0B90102C0660F771F8A9588
:1010F000E2F7CB01842B80830F900F900F900F901D
:10110000DF91CF911F9108951F93CF93DF9300D06C
:1011100000D0CDB7DEB7162F20E030E0AE014D5F36
:101120005F4FBE016F5F7F4F0E94DE07EB81FC8146
:10113000408121E030E0B90102C0660F771F8A9537
:10114000E2F7CB01111103C08095842301C0842BE9
:1011500080830F900F900F900F90DF91CF911F9190
:101160000895CF93DF9300D000D0CDB7DEB721E054
:1011700030E0AE014D5F5F4FBE016F5F7F4F0E9459
:10118000DE07EB81FC81208130E0A90102C055958A
:1011900047958A95E2F7CA0181700F900F900F90E2
:1011A0000F90DF91CF9108951F920F920FB60F927B
:1011B00011248F9383B78E7F83BF8F910F900FBEC3
:1011C0000F901F90189561E080EB0E94840861E009
:1011D00080EB0E942E0881E58CBD8DB58EB561E057
:1011E00081EB0E942E0861E082EB0C942E08CF93D5
:1011F000DF931F92CDB7DEB7898389818EBD0DB491
:1012000007FEFDCF8EB50F90DF91CF9108951F930C
:10121000CF93DF93182FC091C50960E08C2F0E94F7
:101220008408D091C40960E08D2F0E948408812F2A
:101230000E94F70861E08D2F0E94840861E08C2FE6
:10124000DF91CF911F910C948408CF92DF92EF929F
:10125000FF921F93CF93DF937C016B011091C5091F
:1012600060E0812F0E948408E701CE018E199F095A
:101270008C159D0524F489910E94F708F6CF61E052
:10128000812FDF91CF911F91FF90EF90DF90CF9052
:101290000C948408CF92DF92EF92FF920F931F93EA
:1012A000CF93DF9300D000D0CDB7DEB76C01F62E20
:1012B0008A01E22E8AE20E940709198223E030E0C7
:1012C000C601B9010E94F4116A831B82C601800F16
:1012D000911F0197B9010E94F4116C8364E070E0E2
:1012E000CE0101960E9425098BE20E94070919820E
:1012F000FA821B82EA94FE0CFC8264E070E0CE016C
:1013000001960E9425098CE20E9407090F900F9018
:101310000F900F90DF91CF911F910F91FF90EF9061
:10132000DF90CF900895EF92FF920F931F93CF938A
:10133000DF9300D000D0CDB7DEB784E8E82E86E09A
:10134000F82EB7016F5F7F4FF7010491033659F410
:10135000F2E0EF0EF11CFB01649170E080E090E0A0
:101360000E945910EECF0023C1F0F2E0EF0EF11C05
:10137000FB0184910E940709015019F310E0A801B4
:10138000B701CE0101960E943A12E00EF11EB8019B
:10139000CE0101960E942509D4CF0F900F900F9097
:1013A0000F90DF91CF911F910F91FF90EF900895D3
:1013B0008038E1E09E0764F4603A71054CF44138EE
:1013C000E1E05E072CF4213A310514F40C944A094B
:1013D00008952F923F924F925F926F927F928F92D9
:1013E0009F92AF92BF92CF92DF92EF92FF920F93B4
:1013F0001F93CF93DF93CDB7DEB7CC56D1090FB68D
:10140000F894DEBF0FBECDBF4C01A1967FAF6EAF8B
:10141000A197FA015901C8010430110514F083E0C5
:1014200090E0A7014430510514F043E050E08330D0
:10143000910559F0682E282F2295220F220F207C2B
:10144000582E550C550C550C05C063E0662E7CE1FA
:10145000572E20EEDA01AD5DBC4F7C90DF010D9080
:101460000020E9F71197CD018E1B9F0BBC01A50150
:10147000425051094230510508F00EC133E0A31625
:10148000B10449F00CE010E044E050E06F965FAF2B
:101490004EAF6F9708C00FE010E0A5E0B0E06F9688
:1014A000BFAFAEAF6F97809FA001819F500D909FFF
:1014B000500D1124480D591D413851403CF080E831
:1014C00091E088199909B8010E94F41177FDE0C1F3
:1014D0006F964EAD5FAD6F9734E0440F551F3A9550
:1014E000E1F7A6965FAF4EAFA6976F01CF01860FCB
:1014F000971FA8969FAF8EAFA897C801049763E087
:1015000070E00E94E0116E5F7F4FDB01AA0FBB1FEE
:10151000A496BFAFAEAFA497F8013697AA96FFAFD7
:10152000EEAFAA97922F9529872D8370982BA296BC
:101530009FAFA297872D8F71282BAB962FAFAB97BC
:10154000A8964EAD5FADA897C416D50619F480E0F5
:1015500090E0A0C153E0A516B10459F4D6016C91F6
:10156000B8E06B9FB00111246C577D4F48E050E00C
:101570000EC0F601808190E0809726E0289FB001A0
:10158000299F700D11246C5B7E4F46E050E0CE0128
:101590008B5A9F4F0E943A12AE014F5F5F4F98E007
:1015A000292E312CFF24F394452C46289A016F965E
:1015B0006EAD7FAD6F97640F751FAD967FAF6EAF49
:1015C000AD97FE01EB5AFF4F80E090E0AA96AEADDA
:1015D000BFADAA978A179B07CCF560816F2121F0D8
:1015E000A2967FADA29701C0772D61816F2131F066
:1015F0007C7F7629AB966FADAB9701C0672DE280FB
:10160000EF2011F0607E6429AD96AEADBFADAD9711
:101610007C93D9017C938630910549F0AD96AEADAF
:10162000BFADAD9711966C93D90111966C932E5F57
:101630003F4F0396AD966EAD7FADAD976E5F7F4F1A
:10164000AD967FAF6EAFAD973396C0CFFF0C71E014
:10165000271A3108A4968EAD9FADA497480F591F45
:101660002114310409F0A2CF20E130E0A801A196B5
:101670006EAD7FADA197C4010E94D809A6966EAD4C
:101680007FADA697CE0101960E942509800E911E7E
:101690009FEFC91AD90A54CFAB2809F07AC039E0B4
:1016A000369FC001379F900D1124880D991D8138F8
:1016B000914044F080E891E08819990969E070E070
:1016C0000E94F41177FDE4C08F017F01E60EF71E42
:1016D000AA24A394872D8F71D22ED82A0E151F0508
:1016E00009F435CFF80161918F01F8E06F9FB001E7
:1016F00011246C577D4F48E050E0CE018B5A9F4F2C
:101700000E943A12CE01019620E030E0B82EC92E98
:101710007A2D022E01C0770F0A94EAF7FE01EB5AE8
:10172000FF4FDC0140E050E06081672311F06D2D38
:1017300001C0672D4180472211F0637E6529463044
:10174000510529F04280472211F06C7F66296D9384
:101750004D5F5F4F33964930510531F703962F5F48
:101760003F4F28303105A1F628E030E049E050E055
:10177000A1966EAD7FADA197C4010E94D80939E052
:10178000830E911C68E170E08B2D9C2D0E94250931
:10179000A5CF36E0369FC001379F900D1124880DEC
:1017A000991D8138914044F080E891E088199909A9
:1017B00066E070E00E94F41177FD6AC08F017F013E
:1017C000E60EF71E3324339485E5C82ED12CCC0EBB
:1017D000DD1E56E0C50ED11C872D8F71B22EB82AA2
:1017E0000E151F0509F4B3CED8018D918D0190E03F
:1017F000809726E0289FB001299F700D11246C5B13
:101800007E4F46E050E0CE018B5A9F4F0E943A1225
:10181000CE01019620E030E0482EA92E532D022E55
:1018200001C0550F0A94EAF7FE01EB5AFF4FDC01A5
:101830004081452311F04B2D01C0472D6181652367
:1018400011F0437E45296281652311F04C7F4629C2
:101850004D933396CE16DF0659F702962F5F3F4F12
:1018600028303105D9F628E030E046E050E0A19676
:101870006EAD7FADA197C4010E94D809B6E08B0E72
:10188000911C60E170E0842D9A2D0E942509A8CF5B
:101890008FEF9FEFC459DF4F0FB6F894DEBF0FBE36
:1018A000CDBFDF91CF911F910F91FF90EF90DF900F
:1018B000CF90BF90AF909F908F907F906F905F90F0
:1018C0004F903F902F900895EF92FF920F931F93A8
:1018D000CF93DF93CDB7DEB7C058D1090FB6F894D8
:1018E000DEBF0FBECDBFE82E28E830E040E851E073
:1018F00060E070E080E090E00E944A0908E810E0B3
:10190000F12C40E850E0B701CE0101960E9443124D
:1019100060E870E0CE0101960E942509015011098E
:1019200081F7C058DF4F0FB6F894DEBF0FBECDBFB2
:10193000DF91CF911F910F91FF90EF9008951F932A
:10194000CF93DF93D82F162FC42F8093C5096093B0
:10195000C4094093C3090E94E30861E08D2F0E94EF
:101960002E0861E08D2F0E94840861E0812F0E9483
:101970002E0861E08C2F0E942E0861E08C2F0E94BF
:10198000840862E370E080E090E00E94591060E01B
:101990008091C3090E94840865E070E080E090E0D7
:1019A0000E94591061E08091C3090E94840866E991
:1019B00070E080E090E00E9459100E94930980E05E
:1019C0000E94640C80E090E0DF91CF911F91089518
:1019D0009F92AF92BF92CF92DF92EF92FF920F93BE
:1019E0001F93CF93DF93C1E3D3E062E089910E941C
:1019F0002E0883E0C733D807C1F78AE0E0EDF9E0AD
:101A0000A6ECB9E001900D928A95E1F7C0EDD9E01E
:101A100097E2E92E93E0F92ECC24C394D12C1882BE
:101A2000F70191907F0161E0892D0E942E0860E00E
:101A3000892D0E94840881E3A82E83E0B82E00E05F
:101A400010E0F50181915F010E94B108811109C088
:101A50002881C601002E01C0880F0A94EAF7822B64
:101A600088830F5F1F4F0630110559F761E0892DFC
:101A70000E94840860E0892D0E942E082196F9E0DA
:101A8000CA3DDF0761F6DF91CF911F910F91FF9063
:101A9000EF90DF90CF90BF90AF909F900895CF923E
:101AA000DF92FF920F931F93CF93DF930E94E80C76
:101AB0008091D009182F1870682F607180EDC82EA2
:101AC00089E0D82EE6ECF9E020E030E080E0D601B5
:101AD0000D916D01D9017DEF91E0F22E402F492348
:101AE000491317C040814923A1F4F11002C072309C
:101AF00080F0111105C0662331F04AE052E005C0C4
:101B000046E452E002C042E852E04A0F5B1FEA019D
:101B10008881990F7F5F1A96733001F72F5F3F4FCF
:101B200031962A30310599F6DF91CF911F910F91AF
:101B3000FF90DF90CF900895FC01918D228D892F29
:101B400090E0805C9F4F821B91098F7399270895C5
:101B5000FC01918D828D981731F0828DE80FF11D77
:101B6000858D90E008958FEF9FEF0895FC01918D92
:101B7000828D981761F0828DDF01A80FB11D5D96EF
:101B80008C91928D9F5F9F73928F90E008958FEF5D
:101B90009FEF0895FC01538D448D252F30E0842F55
:101BA00090E0821B930B541710F0CF960895019785
:101BB00008958EE49FE0892B41F080E090E0892B2E
:101BC00021F00E944E0F81110DC080E090E0892B22
:101BD00071F080E090E0892B51F00E9400008111AB
:101BE00004C008950E940000F0CF0C9400000895F6
:101BF000FC01848DDF01A80FB11DA35ABF4F2C91AA
:101C0000848D90E001968F739927848FA689B78978
:101C10002C93A089B1898C91837080648C93938D6F
:101C2000848D981306C00288F389E02D80818F7D12
:101C300080830895EF92FF920F931F93CF93DF93CA
:101C4000EC0181E0888F9B8D8C8D981305C0E8890D
:101C5000F989808185FD26C0F62E0B8D10E00F5F7F
:101C60001F4F0F731127E02E8C8DE8120CC00FB69A
:101C700007FCFACFE889F989808185FFF5CFCE018D
:101C80000E94F80DF1CF8B8DFE01E80FF11DE35A94
:101C9000FF4FF0829FB7F8940B8FEA89FB89808110
:101CA00080620AC09FB7F894EE89FF896083E88953
:101CB000F98980818370806480839FBF81E090E098
:101CC000DF91CF911F910F91FF90EF900895CF93E7
:101CD000DF93EC01888D8823C9F0EA89FB89808134
:101CE00085FD05C0A889B9898C9186FD0FC00FB606
:101CF00007FCF5CF808185FFF2CFA889B9898C9147
:101D000085FFEDCFCE010E94F80DE7CFDF91CF9197
:101D10000895CF92DF92EF92FF921F93CF93DF93BC
:101D2000EC016A017B01122FE889F98982E0808346
:101D30004115514E61057105B1F060E079E08DE328
:101D400090E0A70196010E940812DA01C9010197EB
:101D5000A109B109B695A795979587959C0121157D
:101D600080E13807A8F0E889F989108260E874E812
:101D70008EE190E0A70196010E940812DA01C901E4
:101D80000197A109B109B695A795979587959C01EB
:101D9000EC85FD853083EE85FF852083188EEC89E8
:101DA000FD891083EA89FB89808180618083EA89CB
:101DB000FB89808188608083EA89FB8980818068D3
:101DC0008083EA89FB8980818F7D8083DF91CF9139
:101DD0001F91FF90EF90DF90CF9008951F920F9288
:101DE0000FB60F9211240BB60F922F938F939F93E0
:101DF000EF93FF93E091EA09F091EB098081E09184
:101E0000F009F091F10982FD12C090818091F309EF
:101E10008F5F8F732091F409821751F0E091F309DD
:101E2000F0E0E652F64F958F8093F30901C0808170
:101E3000FF91EF919F918F912F910F900BBE0F907B
:101E40000FBE0F901F9018951F920F920FB60F9212
:101E500011240BB60F922F933F934F935F936F9381
:101E60007F938F939F93AF93BF93EF93FF938AEDED
:101E700099E00E94F80DFF91EF91BF91AF919F9172
:101E80008F917F916F915F914F913F912F910F9023
:101E90000BBE0F900FBE0F901F9018958AED99E022
:101EA0000E949C0D21E0892B09F420E0822F0895E7
:101EB000EAEDF9E01382128288EE93E0A0E0B0E050
:101EC00084839583A683B7838BE393E09183808398
:101ED00085EC90E09587848784EC90E097878687EF
:101EE00080EC90E0918B808B81EC90E0938B828BE7
:101EF00082EC90E0958B848B86EC90E0978B868BC0
:101F0000118E128E138E148E0895CF92DF92EF925F
:101F1000FF920F931F93CF93DF936C017A018B0194
:101F2000C0E0D0E0CE15DF0581F0D8016D918D01C4
:101F3000D601ED91FC910190F081E02DC60109954B
:101F4000892B11F02196EECF7E01C701DF91CF9151
:101F50001F910F91FF90EF90DF90CF900895611542
:101F6000710579F0FB0101900020E9F73197AF018D
:101F7000461B570BDC01ED91FC910280F381E02DB3
:101F8000099480E090E0089569E473E00C94AF0F49
:101F90000F931F93CF93DF93EC010E94AF0F8C013F
:101FA000CE010E94C40F800F911FDF91CF911F912E
:101FB0000F91089508950E9495100E94DA0F0E94D3
:101FC000A804C9EDDDE00E944C052097E1F30E94D2
:101FD000D90DF9CF1F920F920FB60F9211242F93A4
:101FE0003F938F939F93AF93BF938091780A909183
:101FF000790AA0917A0AB0917B0A3091770A23E09E
:10200000230F2D3720F40196A11DB11D05C026E830
:10201000230F0296A11DB11D2093770A8093780AA1
:102020009093790AA0937A0AB0937B0A80917C0AF4
:1020300090917D0AA0917E0AB0917F0A0196A11D20
:10204000B11D80937C0A90937D0AA0937E0AB09381
:102050007F0ABF91AF919F918F913F912F910F90E8
:102060000FBE0F901F9018953FB7F89480917C0A8F
:1020700090917D0AA0917E0AB0917F0A26B5A89B17
:1020800005C02F3F19F00196A11DB11D3FBFBA2F0A
:10209000A92F982F8827820F911DA11DB11DBC016A
:1020A000CD0142E0660F771F881F991F4A95D1F72F
:1020B00008958F929F92AF92BF92CF92DF92EF924C
:1020C000FF926B017C010E9434104B015C01C11432
:1020D000D104E104F10401F10E94DF110E943410E7
:1020E000DC01CB0188199909AA09BB09883E9340F4
:1020F000A105B10560F321E0C21AD108E108F10899
:1021000088EE880E83E0981EA11CB11CC114D10476
:10211000E104F10419F7DBCFFF90EF90DF90CF904F
:10212000BF90AF909F908F900895789484B582600F
:1021300084BD84B5816084BD85B5826085BD85B56B
:10214000816085BDEEE6F0E0808181608083E1E81A
:10215000F0E0108280818260808380818160808352
:10216000E0E8F0E0808181608083E1EBF0E0808155
:1021700084608083E0EBF0E0808181608083E1E92E
:10218000F0E0808182608083808181608083E0E9EB
:10219000F0E0808181608083E1EAF0E0808182600C
:1021A0008083808181608083E0EAF0E080818160CB
:1021B0008083E1E2F1E080818260808380818160C0
:1021C0008083E0E2F1E0808181608083EAE7F0E0F3
:1021D000808184608083808182608083808181604F
:1021E00080838081806880831092C100089590E090
:1021F000FC013197E231F10508F04CC0E057FF4F88
:102200000C942A12809180008F7703C08091800007
:102210008F7D80938000089580918000877FF9CF23
:1022200084B58F7702C084B58F7D84BD0895809179
:10223000B0008F7703C08091B0008F7D8093B00095
:102240000895809190008F7707C0809190008F7DD6
:1022500003C080919000877F8093900008958091C3
:10226000A0008F7707C08091A0008F7D03C0809170
:10227000A000877F8093A0000895809120018F7730
:1022800007C0809120018F7D03C080912001877F4E
:10229000809320010895CF93DF9390E0FC01E552F5
:1022A000F94F2491FC01E150F94F8491882361F1A9
:1022B00090E0880F991FFC01E95AF84FC591D4911D
:1022C000FC01E35CF84FA591B491611109C09FB77F
:1022D000F8948881209582238883EC912E230BC06B
:1022E000623061F49FB7F8948881322F3095832350
:1022F0008883EC912E2B2C939FBF06C08FB7F89448
:10230000E8812E2B28838FBFDF91CF9108951F93F3
:10231000CF93DF93282F30E0F901E954F94F8491EE
:10232000F901E552F94FD491F901E150F94FC49107
:10233000CC23C1F0162F81110E94F710EC2FF0E092
:10234000EE0FFF1FE35CF84FA591B4919FB7F8948F
:10235000111104C08C91D095D82302C0EC91DE2BD2
:10236000DC939FBFDF91CF911F910895CF93DF93AF
:10237000282F30E0F901E954F94F8491F901E55231
:10238000F94FD491F901E150F94FC491CC2391F068
:1023900081110E94F710EC2FF0E0EE0FFF1FED5DB2
:1023A000F84FA591B491EC91ED2381E090E021F4F8
:1023B00080E002C080E090E0DF91CF910895089521
:1023C000AA1BBB1B51E107C0AA1FBB1FA617B7075B
:1023D00010F0A61BB70B881F991F5A95A9F7809577
:1023E0009095BC01CD01089597FB072E16F400943B
:1023F00007D077FD09D00E94E01107FC05D03EF41C
:10240000909581959F4F0895709561957F4F0895A0
:10241000A1E21A2EAA1BBB1BFD010DC0AA1FBB1FE8
:10242000EE1FFF1FA217B307E407F50720F0A21B5A
:10243000B30BE40BF50B661F771F881F991F1A94C7
:1024400069F760957095809590959B01AC01BD01F1
:10245000CF010895EE0FFF1F0024001C0BBE079054
:10246000F691E02D09946927962769277827872711
:1024700078270895FB01DC0102C005900D924150C0
:102480005040D8F70895DC0101C06D934150504091
:10249000E0F70895FB01DC010D900020E9F71197AA
:1024A00001900D920020E1F70895BB27FA01A62FB5
:1024B0006217710581059105330B30FB66F0AA2781
:1024C000660F771F881F991FAA1FA21710F0A21B63
:1024D00063953850A9F7A05DAA3308F0A95DA193D0
:1024E00036F7B111B1931082CA010C947712DC0156
:1024F000FC01672F71917723E1F7329704C07C913B
:102500006D9370836291AE17BF07C8F30895F89476
:02251000FFCFFB
:102512003C00606060606060606021323324253678
:102522002722282971776572747975695B5D3D2B65
:102532002D6667686A3A3F08007A786376626E05AC
:102542000004000D0000013C3E6D0203F0F1F2F3C5
:10255200F4F5F6F7F8F931323334353637383930A5
:1025620051574552545955494F5041534446474893
:102572004A4B4C08005A584356424E050004000D7F
:1025820000005F2C2E4D0203F0F1F2F3F4F5F6F7A2
:10259200F8F931323334353637383930717765727C
:1025A200747975696F706173646667686A6B6C08C9
:1025B200007A786376626E050004000D0000202C1C
:1025C2002E6D0203F0F1F2F3F4F5F6F7F8F9496E25
:1025D200697469616C697A656420646973706C619D
:1025E200792E00546F2073656E643A0052656365FC
:1025F200697665643A0030313233343536373839EA
:102602004142434445460020202020202020202013
:1026120020202020202020202020202020202020B8
:1026220020202020202020202020202020202000C8
:102632003A2000004A92FFE4F1F3E2E1D7A0A5D5E7
:10264200D4E6B7B6B5B4E0000000001A0E850FCA92
:102652000D670E9C0DB60DA80D0D0A006E616E0081
:08266200696E66006F766600E8
:00000001FF
