:100000000C94AD030C94D7030C94D7030C94040CFC
:100010000C94D7030C94D7030C94D7030C94D703F8
:100020000C94D7030C94D7030C94D7030C94D703E8
:100030000C94D7030C94D7030C94D7030C94D703D8
:100040000C94D7030C94D7030C94D7030C94D703C8
:100050000C94D7030C94D7030C94D7030C9445133A
:100060000C94D7030C9449120C947F120C94D70370
:100070000C94D7030C94D7030C94D7030C94D70398
:100080000C94D7030C94D7030C94D7030C94D70388
:100090000C94D7030C94D7030C94D7030C94D70378
:1000A0000C94D7030C94D7030C94D7030C94D70368
:1000B0000C94D7030C94D7030C94D7030C94D70358
:1000C0000C94D7030C94D7030C94D7030C94D70348
:1000D0000C94D7030C94D7030C94D7030C94D70338
:1000E0000C94D7030C94D7030C94D7030C94D70328
:1000F0000C94D7030C94D7030C94D7030C94D70318
:100100000C94D7030C94D7030C94D7030C94D70307
:100110000C94D7030C94D7030C94D7030C94D703F7
:100120006B146E145D1461146714A51472147614A4
:100130007C14801484148A148E149214A5149814B8
:100140009C14A0140000000000000000065F0600E0
:1001500000070300070300247E247E2400242B6A6A
:1001600012000063130864630036495620500000F3
:100170000703000000003E4100000000413E000077
:1001800000083E1C3E080008083E08080000E06029
:100190000000000808080808000060600000002057
:1001A00010080402003E5149453E0000427F4000D5
:1001B0000062514949460022494949360018141243
:1001C0007F10002F49494931003C4A49493000011C
:1001D0007109050300364949493600064949291E77
:1001E00000006C6C00000000EC6C000000081422A1
:1001F0004100002424242424000041221408000289
:1002000001590906003E415D551E007E1111117E07
:10021000007F49494936003E41414122007F41412A
:10022000413E007F49494941007F09090901003EDB
:100230004149497A007F0808087F0000417F41005A
:1002400000304040403F007F08142241007F404082
:100250004040007F0204027F007F0204087F003ECE
:100260004141413E007F09090906003E4151215E9E
:10027000007F090919660026494949320001017FBA
:100280000101003F4040403F001F2040201F003F31
:10029000403C403F006314081463000708700807DF
:1002A00000714945430000007F41410000020408FD
:1002B0001020000041417F00000402010204008080
:1002C0008080808000000307000000205454547890
:1002D000007F4444443800384444442800384444AF
:1002E000447F00385454540800087E09090000185F
:1002F000A4A4A47C007F040478000000007D4000DA
:10030000004080847D00007F102844000000007FB2
:100310004000007C04180478007C04047800003855
:100320004444443800FC444444380038444444FCC9
:1003300000447844040800085454542000043E4407
:100340002400003C40207C00001C2040201C003C7D
:100350006030603C006C10106C00009CA0603C00A1
:10036000006454544C0000083E41410000000077F6
:100370000000000041413E08000201020100003C73
:100380002623263C00000000000000000000065F5D
:100390005F0600000007070007070000147F7F14B6
:1003A0007F7F1400242E2A6B6B3A120046663018A9
:1003B0000C666200307A4F5D377A4800000407030C
:1003C00000000000001C3E63410000000041633E4D
:1003D0001C000000082A3E1C1C3E2A080008083E9B
:1003E0003E080800000080E06000000000080808E7
:1003F0000808080000000060600000006030180C71
:10040000060301003E7F594D477F3E0040427F7FFB
:1004100040400000627359496F66000022634949F9
:100420007F360000181C16537F7F50002767454514
:100430007D3900003C7E4B4979300000030371791F
:100440000F070000367F49497F360000064F496993
:100450003F1E00000000006666000000000080E60D
:1004600066000000081C36634100000000141414EC
:1004700014141400004163361C08000000020359E4
:100480005D0702003E7F415D5D5F0E007C7E1313C1
:100490007E7C0000417F7F49497F36001C3E6341DE
:1004A00041632200417F7F41633E1C00417F7F49C1
:1004B0005D416300417F7F491D0103001C3E634194
:1004C000513372007F7F08087F7F000000417F7FEB
:1004D00041000000307040417F3F0100417F7F08B4
:1004E0001C776300417F7F41406070007F7F0E1C5E
:1004F0000E7F7F007F7F060C187F7F001C3E6341CC
:10050000633E1C00417F7F49090F06001E3F2131D9
:10051000617F5E00417F7F09197F6600266F4D492C
:100520005973320003417F7F410300007F7F4040C9
:100530007F7F00001F3F60603F1F00003F7F6030F3
:10054000607F3F0063771C081C776300074F787853
:100550004F070000476371594D677300007F7F416B
:10056000410000000103060C183060000041417F8B
:100570007F000000080C0603060C080080808080C5
:100580008080808000000307040000002074545421
:100590003C784000417F3F4848783000387C4444F4
:1005A0006C280000307848493F7F4000387C545424
:1005B0005C180000487E7F490306000098BCA4A494
:1005C000F87C0400417F7F08047C780000447D7D36
:1005D0004000000060E08084FD7D0000417F7F10CE
:1005E000386C440000417F7F400000007C7C18781C
:1005F0001C7C78007C7804047C780000387C4444BF
:100600007C38000084FCF8A4243C1800183C24A486
:10061000F8FC8400447C784C040C1800485C54744A
:100620006424000004043E7F442400003C7C4040DD
:100630003C7C40001C3C60603C1C00003C7C60300A
:10064000607C3C00446C3810386C44009CBCA0A01A
:10065000FC7C00004C64745C4C64000008083E772D
:100660004141000000000077770000004141773EE3
:1006700008080000020301030203010070784C46E1
:100680004C7870000101637801110128633203C0C6
:10069000F80002C30402C40502D01D02B30002B573
:1006A0008B0138023A0202360002B09F05F01212A6
:1006B00012120120012900000000090A0B000003AA
:1006C0000700000000000000000002000000000021
:1006D00000000000000000000004050102040810F2
:1006E00020408020100104080202010102042004BD
:1006F000081020408001020408102040804080053E
:1007000005050505050505020202020202040407AB
:100710000707070404040404040606060606060682
:1007200006020200000000250000002B002E003110
:100730000034000000000000000000000000000085
:1007400000240000002A002D0030003300000000CB
:100750000000000000000000B31211241FBECFEF04
:10076000D1E4DEBFCDBF13E0A0E0B2E0E4EAFFE2F7
:1007700000E00BBF02C007900D92A43BB107D9F770
:100780002CE0A4EBB3E001C01D92A03CB207E1F75E
:1007900013E0CDEAD3E004C02197FE010E945D176B
:1007A000CC3AD107C9F70E9436130C94D0170C9499
:1007B00000006CEB72E089E19CE00C949511809153
:1007C000BC03813021F0823021F44CE003C04CEEB8
:1007D00001C04CE660E189E19CE00C947A118F92B3
:1007E0009F92AF92BF92CF92DF92EF92FF926B01F6
:1007F0007C010E942E1629EE30E345E25BE30E9465
:10080000BC160E94FF154B015C01A50166277727E6
:100810006DE089E19CE00E947A1177276B2D5A2DBB
:10082000492D6EE089E19CE00E947A11482D6FE02D
:1008300089E19CE00E947A118091BD0381110AC078
:1008400080E8C8168BE4D80684EFE80682E1F80653
:10085000C0F415C0813049F4C1148AEBD80685E490
:10086000E80689E1F80668F40AC0823051F4C11440
:1008700084E7D8068BE8E80682E3F80610F44AE03D
:1008800001C04AE264E289E19CE0FF90EF90DF90D2
:10089000CF90BF90AF909F908F900C947A110F9350
:1008A0001F93CF93DF93C42F0E94EF0363E389E18B
:1008B0009CE00E94FD1164E389E19CE00E94FD112F
:1008C00062E070E080E090E00E94B413D0E06DE060
:1008D00089E19CE00E94111294E0CC0FDD1F9A95F3
:1008E000E1F7CE53DC4F88836EE089E19CE00E9403
:1008F000111289836FE089E19CE00E9411128A83C2
:1009000063E289E19CE00E9411128B8364E289E139
:100910009CE00E9411128C8365E289E19CE00E94B8
:1009200011128D830091B50310E064E389E19CE02E
:100930000E941112FE01E00FF11F805886831E866F
:100940001F8666E389E19CE0DF91CF911F910F91B3
:100950000C94FD114F925F926F927F928F929F92B3
:10096000AF92BF92CF92DF92EF92FF92CF93DF933D
:10097000CDB7DEB72A970FB6F894DEBF0FBECDBF56
:100980009A8789878091BC038130A1F18230C9F4B4
:1009900089859A850A9664E170E00E94351784E1A2
:1009A000869F9001879F300D11243A87298724E183
:1009B000EAE258E8852E5BE2952E5AE0A52EB12C8E
:1009C00021C089859A85029665E070E00E943517FE
:1009D00085E0869FD001879FB00D1124BA87A98733
:1009E00025E0EDE040E1842E4DE0942E43E0A42E7E
:1009F000B12C08C021E0E3E034E4832E33EC932EE5
:100A0000A12CB12CF0E0422E469430E069857A8525
:100A100068367240E8F1512CC2018E1B9F0B8E5339
:100A20009C4FB9010E944917629F6001639FD00CDF
:100A3000729FD00C1124CF0183519D4FB9010E94A8
:100A40004917629F7001639FF00C729FF00C112494
:100A5000CF01875E9E4FB9010E944917629F300106
:100A6000639F700C729F700C1124C2018E1B9F0B30
:100A70008F519E4FB9010E944917629FA001639F49
:100A8000500D729F500D112491E020E082E07AC059
:100A9000A985BA85512CC2018E1B9F0BA237B1408C
:100AA000C8F18F519E4FB9010E944917629F6001A2
:100AB000639FD00C729FD00C1124CF0186589E4F9B
:100AC000B9010E944917629F7001639FF00C729FE9
:100AD000F00C1124CF0183519D4FB9010E94491799
:100AE000629F3001639F700C729F700C1124C201D1
:100AF0008E1B9F0B87599E4FB9010E944917629F19
:100B0000A001639F500D729F500D112490E022E0D0
:100B100081E038C087599E4FB9010E944917629FF2
:100B20006001639FD00C729FD00C1124CF01875EAF
:100B30009E4FB9010E944917629F7001639FF00C9C
:100B4000729FF00C1124CF0186589E4FB9010E946C
:100B50004917629F3001639F700C729F700C1124C3
:100B6000C2018E1B9F0B8E539C4FB9010E944917E7
:100B7000629FA001639F500D729F500D112492E05F
:100B800021E080E069857A85C616D70640F4909109
:100B9000BD03891311C0822F7A86698612C0A98588
:100BA000BA85AE15BF0568F42091BD03821307C056
:100BB000892F5A87498705C0DA86C98602C0FA8616
:100BC000E9868093BD03882399F08130F1F090E8A5
:100BD000C92E94EFD92E96E5E92E99E3F92E80E4FB
:100BE00095EDA4EABCE289839A83AB83BC831DC0E4
:100BF00020E4C22E2CE6D22E24E8E22E25E1F22EAD
:100C000060E478EB8FEB90E10CC080E4C82E8AE7BB
:100C1000D82E8BEAE82E8CE1F82E60E872ED87E89A
:100C200096E169837A838B839C83A985BA8520E4C6
:100C300032E44FE050E00E9466176D837E838F831D
:100C4000988782E48093B6034D805E806F807884BD
:100C5000C414D504E604F70428F14091B6034438DF
:100C600008F5C301B2010E944F04480C591C6A1CCC
:100C70007B1C9091B4038091B60370E1879FA00123
:100C8000112420E030E0291748F4F901E40FF51FA2
:100C9000EE53FC4F16822F5F3F4FF5CF8F5F80934F
:100CA000B603D6CFCD80DE80EF80F884C818D9088F
:100CB000EA08FB0882E48093B70389819A81AB81BB
:100CC000BC81C816D906EA06FB0620F14091B7039D
:100CD000442301F141504093B703C701B6010E947C
:100CE0004F044091B4032091B70390E1299F9001F4
:100CF000112480E090E0841740F4F901E80FF91F17
:100D0000EE53FC4F16820196F6CFC818D908EA08B0
:100D1000FB08D3CFA985BA85B093C103A093C003C4
:100D2000CD012A960FB6F894DEBF0FBECDBFDF917E
:100D3000CF91FF90EF90DF90CF90BF90AF909F90BA
:100D40008F907F906F905F904F900895CF93DF9337
:100D5000CDB7DEB72C970FB6F894DEBF0FBECDBF70
:100D6000BE016F5F7F4F9CE0FB0111929A95E9F7FE
:100D70009DE099839EE09B839FE09D8393E29F8308
:100D800094E2998795E29B87F0E18F9FC00111243F
:100D9000FC01EE53FC4F80818A8381818C838281A8
:100DA0008E838381888784818A8785818C8789E186
:100DB0009CE00E9495112C960FB6F894DEBF0FBEF2
:100DC000CDBFDF91CF9108958093BC030E94DF03D4
:100DD0008091C0039091C1030C94AA0488EB91E028
:100DE0009093C1038093C0039093BF038093BE038D
:100DF00081E08093BD031092BC038093BB031092EB
:100E0000BA031092B9031092B8031092B70383E8A3
:100E10008093B6031092B50388E08093B4030E94D8
:100E2000D90380E00C94E406EF92FF920F931F9396
:100E3000CF93DF938091BA03813011F0C0E101C0FC
:100E4000C4E08091BC03813031F0823011F4D4E1F0
:100E500003C0D5E001C0D1E00E94FE10813609F444
:100E600004C1C0F5883009F4D9C0A8F4833009F46E
:100E7000DDC050F4823009F07DC18091BE039091B5
:100E8000BF038D1B910967C0843009F4D6C085303B
:100E900009F4EBC06FC1833309F462C020F48032DF
:100EA00009F46FC067C1843309F445C0893309F080
:100EB00061C1E12CF12C03E010E023E030E042EDD1
:100EC00052E064E170E080E090E00E94980D87E5D8
:100ED00093E041C0813709F4B0C0F0F48D3609F4D5
:100EE000E0C0A0F48C3609F045C1E12CF12C03E000
:100EF00010E023E030E043E153E064E170E080E0A3
:100F000090E00E94980D1092BA0334C18E36E9F138
:100F1000803709F400C12EC1843709F46FC020F472
:100F2000833709F4E9C026C1853709F447C08737FC
:100F300009F454C01FC1E12CF12C03E010E023E0C0
:100F400030E04EED52E064E170E080E090E00E941D
:100F5000980D83EB91E09093BF038093BE030AC189
:100F6000E12CF12C03E010E023E030E04AEE52E007
:100F700064E170E080E090E00E94980D8BE391E0E6
:100F8000EACF8091BC03811117C0E12CF12C03E062
:100F900010E023E030E046EF52E064E170E080E0F2
:100FA00090E00E94980D81E0DF91CF911F910F9109
:100FB000FF90EF900C94E406813081F4E12CF12C49
:100FC00003E010E023E030E04DEF52E064E170E038
:100FD00080E090E00E94980D82E0E6CFE12CF12CB9
:100FE00003E010E023E030E042E053E064E170E031
:100FF00080E090E00E94980D80E0D6CFE12CF12CAB
:1010000003E010E023E030E047E053E064E170E00B
:1010100080E090E00E94980D81E005C081E0909111
:10102000BA03911180E08093BA03A4C08091BE03FB
:101030009091BF038D0F911D8ECFE12CF12C03E019
:1010400010E023E030E040E253E064E170E080E053
:1010500090E00E94980D8091B80390E08C1B91095C
:1010600097FF1CC080E090E019C0E12CF12C03E058
:1010700010E023E030E04AE253E064E170E080E019
:1010800090E00E94980D2091B8038C2F90E0820F81
:10109000911D8937910514F088E790E08093B8039B
:1010A00069C08091BB03811106C093E0E92EF12C49
:1010B00000E010E004C0E12CF12C03E010E023E09C
:1010C00030E044E353E064E170E080E090E00E94AF
:1010D000980D81E09091BB03911180E08093BB0358
:1010E00064E670E080E090E0DF91CF911F910F9176
:1010F000FF90EF900C94B4130E94FE108337E1F33D
:101100000E94FE108337B1F168EC70E080E090E05F
:101110000E94B413F5CF8091B403811106C083E01F
:10112000E82EF12C00E010E004C0E12CF12C03E0EB
:1011300010E023E030E04DE353E064E170E080E054
:1011400090E00E94980D8091B403813011F488E002
:1011500001C081E08093B4038091C0039091C103EA
:101160000E94AA048091B5036091B4030E942917DC
:101170009093B503DF91CF911F910F91FF90EF9066
:10118000089542EA50E066ED70E087EE90E00E943C
:101190004E1069E473E08AE19CE00E94231389E128
:1011A0009CE00E94E01164E670E080E090E00E9424
:1011B000B4136EE573E08AE19CE00E9423130E9461
:1011C000EE0664E670E080E090E00E94B4136BE607
:1011D00073E08AE19CE00C942313CF92DF92EF92AC
:1011E000FF920F931F93CF93DF9302E010E023E071
:1011F0004FE750E06CE670E080E090E00E94190D4F
:10120000C1E0D0E085E0E82EF12C99E1C92ED12C87
:101210008E01045F1F4FC801B7010E944917892B37
:1012200041F423E046E050E06CE670E0CE010E941D
:10123000610DC801B6010E944917892B41F423E0D2
:101240004CE050E06CE670E0CE010E94610D21960A
:10125000C038D105E9F6DF91CF911F910F91FF9032
:10126000EF90DF90CF900895EF92FF920F931F932E
:10127000CF93DF9300D000D01F92CDB7DEB720917F
:10128000BC038091BE039091BF032130D9F122307D
:1012900009F070C04AE050E0BE016F5F7F4F0E94CE
:1012A0009017E12CF12C03E010E022E030E0AE01D9
:1012B0004F5F5F4F69E770E088EA90E00E94980D09
:1012C0008091BE039091BF034AE050E0BE016F5F82
:1012D0007F4F88970E94901722E030E0AE014F5F69
:1012E0005F4F69E770E085E190E00E94980D809182
:1012F000BE039091BF034AE050E0BE016F5F7F4F95
:1013000088966FC04AE050E0BE016F5F7F4F0E9439
:101310009017E12CF12C03E010E022E030E0AE0168
:101320004F5F5F4F69E770E088EA90E00E94980D98
:101330008091BE039091BF034AE050E0BE016F5F11
:101340007F4F02970E94901722E030E0AE014F5F7E
:101350005F4F69E770E085E190E00E94980D809111
:10136000BE039091BF034AE050E0BE016F5F7F4F24
:10137000029637C04AE050E0BE016F5F7F4F0E9487
:101380009017E12CF12C03E010E022E030E0AE01F8
:101390004F5F5F4F69E770E088EA90E00E94980D28
:1013A0008091BE039091BF034AE050E0BE016F5FA1
:1013B0007F4F0A970E94901722E030E0AE014F5F06
:1013C0005F4F69E770E085E190E00E94980D8091A1
:1013D000BE039091BF034AE050E0BE016F5F7F4FB4
:1013E0000A960E94901722E030E0AE014F5F5F4FF7
:1013F00069E770E08EE391E00E94980D0F900F90E6
:101400000F900F900F90DF91CF911F910F91FF9050
:10141000EF900895FF920F931F93CF93DF93609106
:10142000B40370E090E0DC01C4E0AA0FBB1FCA95D2
:10143000E1F720E030E040E02617370764F4F901D7
:10144000EA0FFB1FEE53FC4F5681451708F4452F5A
:101450002F5F3F4FF1CF9C01B4E0220F331FBA95AD
:10146000E1F7F901EE53FC4F5785451709F45FC0CA
:1014700047877091BA036091B80350E07130A1F4CE
:1014800070E0461B570B5595479557FF02C040E04B
:1014900050E0D42FF901EE53FC4F268530E0261B97
:1014A000370B3595279517C070E0461B570B5595A0
:1014B00047955595479557FF02C040E050E0D42F1F
:1014C000F901EE53FC4F268530E0261B370B35958E
:1014D00027953595279537FF02C020E030E0C22FD1
:1014E0008C010450110920E04AE650E060E070E011
:1014F000C8010E94610D6AE6F62EFD1A8091BB03B9
:10150000882341F04C2F50E06C1B70E022E0C801B2
:101510000E94610D4D2F50E06F2D70E023E0C80157
:10152000DF91CF911F910F91FF900C94610DDF918E
:10153000CF911F910F91FF900895EF92FF920F931B
:101540001F93CF93DF938091BE039091BF032091AF
:10155000C0033091C1038217930731F00E94AA049F
:101560009093BF038093BE030E94ED080E9434094C
:1015700000E114E0C4E0D0E08C2F0E94A6060E9497
:10158000140764E389E19CE00E94FD118C2F0E9406
:101590000A0AE090B503F12C64E389E19CE00E9423
:1015A0002D129E0194E0220F331F9A95E1F72E53DE
:1015B0003C4FF901EE0DFF1D805886838091BB03DF
:1015C000882371F08091B503F901E80FF11DD8016E
:1015D0009C918681891708F4892FF801808302C0C5
:1015E000D8011C9266E389E19CE00E94FD112196DE
:1015F000005F1F4FC338D10509F0BECF8091B503FE
:101600008F5F6091B4030E9429179093B503DF9117
:10161000CF911F910F91FF90EF900895982FFB01AC
:10162000DA018770907F903D19F128F4903A41F0EB
:10163000903B91F00895903E39F1903F89F10895E3
:10164000232B19F424E330E002C022E330E02D9391
:101650003C9323E330E02FC0232B19F425E230E044
:1016600002C023E230E02D933C9324E230E023C01B
:10167000232B19F42BE230E002C029E230E02D9355
:101680003C932AE230E017C0232B19F42EE230E01D
:1016900002C02CE230E02D933C932DE230E00BC0F1
:1016A000232B19F421E330E002C02FE230E02D9328
:1016B0003C9320E330E03183208308951F93CF9340
:1016C000DF9300D000D0CDB7DEB7162F20E030E09A
:1016D000AE014D5F5F4FBE016F5F7F4F0E940E0BEB
:1016E000113061F1E0F01230B9F5E981FA81408101
:1016F00021E030E0B90102C0660F771F8A95E2F75A
:10170000CB01942F982B9083EB81FC819081982BB7
:101710009083E981FA819081809589231CC0E981B9
:10172000FA81408121E030E0B90102C0660F771FE5
:101730008A95E2F7CB01809584230DC0E981FA8177
:10174000408121E030E0B90102C0660F771F8A9521
:10175000E2F7CB01842B80830F900F900F900F90B6
:10176000DF91CF911F9108951F93CF93DF9300D006
:1017700000D0CDB7DEB7162F20E030E0AE014D5FD0
:101780005F4FBE016F5F7F4F0E940E0BEB81FC81AC
:10179000408121E030E0B90102C0660F771F8A95D1
:1017A000E2F7CB01111103C08095842301C0842B83
:1017B00080830F900F900F900F90DF91CF911F912A
:1017C0000895CF93DF9300D000D0CDB7DEB721E0EE
:1017D00030E0AE014D5F5F4FBE016F5F7F4F0E94F3
:1017E0000E0BEB81FC81208130E0A90102C05595F0
:1017F00047958A95E2F7CA0181700F900F900F907C
:101800000F90DF91CF9108951F920F920FB60F9214
:1018100011248F9383B78E7F83BF8F910F900FBE5C
:101820000F901F90189561E080EB0E94B40B61E06F
:1018300080EB0E945E0B81E58CBD8DB58EB561E0BD
:1018400081EB0E945E0B61E082EB0C945E0BCF9308
:10185000DF931F92CDB7DEB7898389818EBD0DB42A
:1018600007FEFDCF8EB50F90DF91CF9108951F93A6
:10187000CF93DF93182FC091040C60E08C2F0E944F
:10188000B40BD091030C60E08D2F0E94B40B812F1C
:101890000E94270C61E08D2F0E94B40B61E08C2F19
:1018A000DF91CF911F910C94B40BCF92DF92EF9206
:1018B000FF921F93CF93DF937C016B011091040C77
:1018C00060E0812F0E94B40BE701CE018E199F09C1
:1018D0008C159D0524F489910E94270CF6CF61E0B8
:1018E000812FDF91CF911F91FF90EF90DF90CF90EC
:1018F0000C94B40BCF92DF92EF92FF920F931F9351
:10190000CF93DF9300D000D0CDB7DEB76C01F62EB9
:101910008A01E22E8AE20E94370C198223E030E02D
:10192000C601B9010E9449176A831B82C601800F54
:10193000911F0197B9010E9449176C8364E070E020
:10194000CE0101960E94550C8BE20E94370C198241
:10195000FA821B82EA94FE0CFC8264E070E0CE0105
:1019600001960E94550C8CE20E94370C0F900F904C
:101970000F900F90DF91CF911F910F91FF90EF90FB
:10198000DF90CF900895EF92FF920F931F93CF9324
:10199000DF9300D000D0CDB7DEB784E8E82E86E034
:1019A000F82EB7016F5F7F4FF7010491033659F4AA
:1019B000F2E0EF0EF11CFB01649170E080E090E03A
:1019C0000E94B413EECF0023C1F0F2E0EF0EF11C41
:1019D000FB0184910E94370C015019F310E0A8011B
:1019E000B701CE0101960E948017E00EF11EB801EA
:1019F000CE0101960E94550CD4CF0F900F900F90FE
:101A00000F90DF91CF911F910F91FF90EF9008956C
:101A10008038E1E09E0764F4603A71054CF4413887
:101A2000E1E05E072CF4213A310514F40C947A0CB1
:101A30000895CF92DF92EF92FF920F931F93CF936F
:101A4000DF93CDB7DEB7C058D1090FB6F894DEBF2B
:101A50000FBECDBF6A01F22E440F551F4C0D5D1D08
:101A6000FC01EE0FFF1F98018E0F9F1F0E94080DB3
:101A7000EF2DF0E0E258FC4F608170E0A601CE014E
:101A800001960E948917E12CF12CE016F1064CF426
:101A9000B601CE0101960E94550C8FEFE81AF80AA4
:101AA000F4CFC058DF4F0FB6F894DEBF0FBECDBFE6
:101AB000DF91CF911F910F91FF90EF90DF90CF902A
:101AC0000895EF92FF921F93CF93DF93CDB7DEB7C8
:101AD000C058D1090FB6F894DEBF0FBECDBF7A0152
:101AE000122FFC01EE0FFF1F9A0141E050E08E0F14
:101AF0009F1F0E94080DE12FF0E0E258FC4F60812B
:101B000070E0A701CE0101960E948917B701CE01AE
:101B100001960E94550CC058DF4F0FB6F894DEBFF7
:101B20000FBECDBFDF91CF911F91FF90EF90089531
:101B30002F923F924F925F926F927F928F929F92DD
:101B4000AF92BF92CF92DF92EF92FF920F931F93CB
:101B5000CF93DF93CDB7DEB7CC56D1090FB6F8944B
:101B6000DEBF0FBECDBF4C01A1967FAF6EAFA19778
:101B7000FA015901C8010430110514F083E090E026
:101B8000A7014430510514F043E050E08330910543
:101B900059F0682E282F2295220F220F207C582ED4
:101BA000550C550C550C05C063E0662E7CE1572E94
:101BB00020EEDA01A258BC4F7C90DF010D9000208E
:101BC000E9F71197CD018E1B9F0BBC01A501425077
:101BD00051094230510508F00EC133E0A316B1049B
:101BE00049F00CE010E044E050E06F965FAF4EAF7C
:101BF0006F9708C00FE010E0A5E0B0E06F96BFAFB0
:101C0000AEAF6F97809FA001819F500D909F500DA8
:101C10001124480D591D413851403CF080E891E0B5
:101C200088199909B8010E94491777FDE0C16F969C
:101C30004EAD5FAD6F9734E0440F551F3A95E1F715
:101C4000A6965FAF4EAFA6976F01CF01860F971F85
:101C5000A8969FAF8EAFA897C801049763E070E085
:101C60000E9435176E5F7F4FDB01AA0FBB1FA49642
:101C7000BFAFAEAFA497F8013697AA96FFAFEEAF0D
:101C8000AA97922F9529872D8370982BA2969FAFA4
:101C9000A297872D8F71282BAB962FAFAB97A89665
:101CA0004EAD5FADA897C416D50619F480E090E05C
:101CB000A0C153E0A516B10459F4D6016C91B8E067
:101CC0006B9FB00111246C577D4F48E050E00EC06F
:101CD000F601808190E0809726E0289FB001299F3F
:101CE000700D11246C5B7E4F46E050E0CE018B5AA4
:101CF0009F4F0E948017AE014F5F5F4F98E0292EE3
:101D0000312CFF24F394452C46289A016F966EAD32
:101D10007FAD6F97640F751FAD967FAF6EAFAD97B8
:101D2000FE01EB5AFF4F80E090E0AA96AEADBFAD4A
:101D3000AA978A179B07CCF560816F2121F0A296A4
:101D40007FADA29701C0772D61816F2131F07C7F3B
:101D50007629AB966FADAB9701C0672DE280EF207F
:101D600011F0607E6429AD96AEADBFADAD977C93AA
:101D7000D9017C938630910549F0AD96AEADBFADEB
:101D8000AD9711966C93D90111966C932E5F3F4FCE
:101D90000396AD966EAD7FADAD976E5F7F4FAD96FE
:101DA0007FAF6EAFAD973396C0CFFF0C71E0271AAF
:101DB0003108A4968EAD9FADA497480F591F2114EA
:101DC000310409F0A2CF20E130E0A801A1966EAD68
:101DD0007FADA197C4010E94080DA6966EAD7FADA0
:101DE000A697CE0101960E94550C800E911E9FEF82
:101DF000C91AD90A54CFAB2809F07AC039E0369F06
:101E0000C001379F900D1124880D991D8138914094
:101E100044F080E891E08819990969E070E00E9437
:101E2000491777FDE4C08F017F01E60EF71EAA2453
:101E3000A394872D8F71D22ED82A0E151F0509F471
:101E400035CFF80161918F01F8E06F9FB001112447
:101E50006C577D4F48E050E0CE018B5A9F4F0E9457
:101E60008017CE01019620E030E0B82EC92E7A2DE1
:101E7000022E01C0770F0A94EAF7FE01EB5AFF4FDA
:101E8000DC0140E050E06081672311F06D2D01C05E
:101E9000672D4180472211F0637E65294630510548
:101EA00029F04280472211F06C7F66296D934D5FC7
:101EB0005F4F33964930510531F703962F5F3F4FFF
:101EC00028303105A1F628E030E049E050E0A19645
:101ED0006EAD7FADA197C4010E94080D39E0830E5D
:101EE000911C68E170E08B2D9C2D0E94550CA5CFB4
:101EF00036E0369FC001379F900D1124880D991D43
:101F00008138914044F080E891E08819990966E0B1
:101F100070E00E94491777FD6AC08F017F01E60ECD
:101F2000F71E3324339485E5C82ED12CCC0EDD1E4C
:101F300056E0C50ED11C872D8F71B22EB82A0E1512
:101F40001F0509F4B3CED8018D918D0190E08097E3
:101F500026E0289FB001299F700D11246C5B7E4FF5
:101F600046E050E0CE018B5A9F4F0E948017CE0171
:101F7000019620E030E0482EA92E532D022E01C0FC
:101F8000550F0A94EAF7FE01EB5AFF4FDC0140813E
:101F9000452311F04B2D01C0472D6181652311F0C0
:101FA000437E45296281652311F04C7F46294D937C
:101FB0003396CE16DF0659F702962F5F3F4F283033
:101FC0003105D9F628E030E046E050E0A1966EAD4C
:101FD0007FADA197C4010E94080DB6E08B0E911C45
:101FE00060E170E0842D9A2D0E94550CA8CF8FEFF0
:101FF0009FEFC459DF4F0FB6F894DEBF0FBECDBFC1
:10200000DF91CF911F910F91FF90EF90DF90CF90D4
:10201000BF90AF909F908F907F906F905F904F9008
:102020003F902F900895EF92FF920F931F93CF93BD
:10203000DF93CDB7DEB7C058D1090FB6F894DEBF35
:102040000FBECDBFE82E28E830E040E851E060E068
:1020500070E080E090E00E947A0C08E810E0F12C3B
:1020600040E850E0B701CE0101960E94891760E870
:1020700070E0CE0101960E94550C0150110981F7C4
:10208000C058DF4F0FB6F894DEBF0FBECDBFDF9153
:10209000CF911F910F91FF90EF9008951F93CF93D1
:1020A000DF93D82F162FC42F8093040C6093030C5A
:1020B0004093020C0E94130C61E08D2F0E945E0B76
:1020C00061E08D2F0E94B40B61E0812F0E945E0BB6
:1020D00061E08C2F0E945E0B61E08C2F0E94B40B9C
:1020E00062E370E080E090E00E94B41360E08091D1
:1020F000020C0E94B40B65E070E080E090E00E946A
:10210000B41361E08091020C0E94B40B66E970E0A8
:1021100080E090E00E94B4130E94C30C80E00E9413
:10212000131080E090E0DF91CF911F9108959F926E
:10213000AF92BF92CF92DF92EF92FF920F931F93D5
:10214000CF93DF93CCE8D3E062E089910E945E0BED
:1021500083E0C239D807C1F78AE0EFE0FCE0A5E0F0
:10216000BCE001900D928A95E1F7CFE0DCE092E8C7
:10217000E92E93E0F92ECC24C394D12C1882F701D8
:1021800091907F0161E0892D0E945E0B60E0892DB6
:102190000E94B40B8CE8A82E83E0B82E00E010E07B
:1021A000F50181915F010E94E10B811109C0288135
:1021B000C601002E01C0880F0A94EAF7822B88839B
:1021C0000F5F1F4F0630110559F761E0892D0E94FE
:1021D000B40B60E0892D0E945E0B2196FCE0C931B2
:1021E000DF0761F6DF91CF911F910F91FF90EF9084
:1021F000DF90CF90BF90AF909F900895CF92DF92E5
:10220000FF920F931F93CF93DF930E9497108091BB
:102210000F0C182F1870682F60718FE0C82E8CE09B
:10222000D82EE5E0FCE020E030E080E0D6010D9122
:102230006D01D9017DEF91E0F22E402F4923491322
:1022400017C040814923A1F4F11002C0723080F020
:10225000111105C0662331F040E052E005C04CE3A7
:1022600052E002C048E752E04A0F5B1FEA01888152
:10227000990F7F5F1A96733001F72F5F3F4F3196AA
:102280002A30310599F6DF91CF911F910F91FF9080
:10229000DF90CF9008956EBD0DB407FEFDCF8EB5D3
:1022A000089560E085E10C94A614CF93DF93EC01D0
:1022B00060E08AE00E94E21461E070E080E090E07B
:1022C0000E94B41361E08AE00E94E21461E070E0D1
:1022D00080E090E00E94B41360E08AE00E94E21483
:1022E00060E3CE010E944B1161E08AE0DF91CF9163
:1022F0000C94E2140F931F93CF93DF93EC01062FFE
:10230000142F60E08AE00E94E214602FCE010E9448
:102310004B11612FCE010E944B1161E08AE0DF91E9
:10232000CF911F910F910C94E214EF92FF920F93B3
:102330001F93CF938C017B01C0E0F701EC0FF11DDF
:102340006081611103C08181882331F04181C8011E
:102350000E947A11CE5FF1CFCF911F910F91FF9024
:10236000EF900895DF92EF92FF920F931F93CF9318
:10237000DF938C01C62FD42EE52EF22E60E08AE08A
:102380000E94E2146C2F6064C8010E944B11CD2D95
:10239000DE2DCE018F0D911D7C01CE15DF0529F0BC
:1023A0006991C8010E944B11F8CF61E08AE0DF918A
:1023B000CF911F910F91FF90EF90DF900C94E2145A
:1023C000CF93DF93EC010E94511161E08AE00E94FB
:1023D000E21461E08DE00E94E21460E08BE00E9474
:1023E000E214CE010E94551128E044EB52E06EE366
:1023F000CE01DF91CF910C94B2111F93CF93DF9355
:10240000EC01162F60E08AE00E94E214612FCE01F9
:102410000E944B1161E08AE0DF91CF911F910C94F3
:10242000E2140F931F93CF938C01C62F60E08AE0D4
:102430000E94E2146C2F6068C8010E944B1160E09A
:10244000C8010E944B11C82F61E08AE00E94E2148B
:102450008C2FCF911F910F9108950F931F93CF93BE
:102460008C01C62F60E08AE00E94E2146C2F606C41
:10247000C8010E944B1160E0C8010E944B11C82F97
:1024800061E08AE00E94E2148C2FCF911F910F919E
:1024900008951F920F920FB60F9211240BB60F9250
:1024A0002F938F939F93EF93FF93E0912A0CF091DA
:1024B0002B0C8081E091300CF091310C82FD12C028
:1024C00090818091330C8F5F8F732091340C821731
:1024D00051F0E091330CF0E0E65EF34F958F80937E
:1024E000330C01C08081FF91EF919F918F912F91CB
:1024F0000F900BBE0F900FBE0F901F9018951F925C
:102500000F920FB60F9211240BB60F922F933F9399
:102510004F935F936F937F938F939F93AF93BF93EB
:10252000EF93FF938AE19CE00E946D15FF91EF917C
:10253000BF91AF919F918F917F916F915F914F91DB
:102540003F912F910F900BBE0F900FBE0F901F90D9
:1025500018958AE19CE00E94111521E0892B09F46D
:1025600020E0822F0895EAE1FCE01382128288EED7
:1025700093E0A0E0B0E084839583A683B78385EAE7
:1025800093E09183808385EC90E09587848784EC49
:1025900090E09787868780EC90E0918B808B81EC30
:1025A00090E0938B828B82EC90E0958B848B86EC11
:1025B00090E0978B868B118E128E138E148E089559
:1025C000CF92DF92EF92FF920F931F93CF93DF93FF
:1025D0006C017A018B01C0E0D0E0CE15DF0581F0FF
:1025E000D8016D918D01D601ED91FC910190F081A2
:1025F000E02DC6010995892B11F02196EECF7E01C1
:10260000C701DF91CF911F910F91FF90EF90DF9065
:10261000CF9008956115710579F0FB0101900020BC
:10262000E9F73197AF01461B570BDC01ED91FC91A7
:102630000280F381E02D099480E090E0089562E942
:1026400073E00C940A130F931F93CF93DF93EC0165
:102650000E940A138C01CE010E941F13800F911F4C
:10266000DF91CF911F910F91089508950E94F0136B
:102670000E9435130E94C108CEE4D5E10E949D0A54
:102680002097E1F30E944E15F9CF1F920F920FB6DB
:102690000F9211242F933F938F939F93AF93BF93E8
:1026A0008091B80C9091B90CA091BA0CB091BB0C70
:1026B0003091B70C23E0230F2D3720F40196A11D94
:1026C000B11D05C026E8230F0296A11DB11D209360
:1026D000B70C8093B80C9093B90CA093BA0CB0933C
:1026E000BB0C8091BC0C9091BD0CA091BE0CB09124
:1026F000BF0C0196A11DB11D8093BC0C9093BD0C25
:10270000A093BE0CB093BF0CBF91AF919F918F91DE
:102710003F912F910F900FBE0F901F9018953FB7CC
:10272000F8948091BC0C9091BD0CA091BE0CB0911E
:10273000BF0C26B5A89B05C02F3F19F00196A11D1F
:10274000B11D3FBFBA2FA92F982F8827820F911D47
:10275000A11DB11DBC01CD0142E0660F771F881F8E
:10276000991F4A95D1F708958F929F92AF92BF9289
:10277000CF92DF92EF92FF926B017C010E948F1348
:102780004B015C01C114D104E104F10401F10E9488
:10279000FE150E948F13DC01CB0188199909AA0943
:1027A000BB09883E9340A105B10560F321E0C21A40
:1027B000D108E108F10888EE880E83E0981EA11C7C
:1027C000B11CC114D104E104F10419F7DBCFFF906F
:1027D000EF90DF90CF90BF90AF909F908F90089533
:1027E000789484B5826084BD84B5816084BD85B5EC
:1027F000826085BD85B5816085BDEEE6F0E08081B3
:1028000081608083E1E8F0E01082808182608083D3
:10281000808181608083E0E8F0E080818160808356
:10282000E1EBF0E0808184608083E0EBF0E0808188
:1028300081608083E1E9F0E0808182608083808133
:1028400081608083E0E9F0E0808181608083E1EA5B
:10285000F0E0808182608083808181608083E0EA13
:10286000F0E0808181608083E1E2F1E0808182603C
:102870008083808181608083E0E2F1E080818160FB
:102880008083EAE7F0E080818460808380818260D9
:1028900080838081816080838081806880831092C2
:1028A000C100089590E0FC013197E231F10508F094
:1028B0004CC0E057FF4F0C945D17809180008F77DC
:1028C00003C0809180008F7D809380000895809167
:1028D0008000877FF9CF84B58F7702C084B58F7D64
:1028E00084BD08958091B0008F7703C08091B000BF
:1028F0008F7D8093B0000895809190008F7707C0FE
:10290000809190008F7D03C080919000877F80939D
:10291000900008958091A0008F7707C08091A0005B
:102920008F7D03C08091A000877F8093A0000895D1
:10293000809120018F7707C0809120018F7D03C097
:1029400080912001877F809320010895CF93DF93AA
:1029500090E0FC01E552F94F2491FC01E150F94F60
:102960008491882361F190E0880F991FFC01E35C5A
:10297000F84FC591D491FC01ED5DF84FA591B4914C
:10298000611109C09FB7F8948881209582238883BC
:10299000EC912E230BC0623061F49FB7F8948881CC
:1029A000322F309583238883EC912E2B2C939FBF5D
:1029B00006C08FB7F894E8812E2B28838FBFDF9154
:1029C000CF9108951F93CF93DF93282F30E0F90123
:1029D000E954F94F8491F901E552F94FD491F90185
:1029E000E150F94FC491CC23C1F0162F81110E9400
:1029F0005214EC2FF0E0EE0FFF1FED5DF84FA591A4
:102A0000B4919FB7F894111104C08C91D095D8233C
:102A100002C0EC91DE2BDC939FBFDF91CF911F9121
:102A20000895FC01918D228D892F90E0805C9F4F4D
:102A3000821B91098F7399270895FC01918D828DD6
:102A4000981731F0828DE80FF11D858D90E0089583
:102A50008FEF9FEF0895FC01918D828D981761F0A3
:102A6000828DDF01A80FB11D5D968C91928D9F5FC5
:102A70009F73928F90E008958FEF9FEF0895FC0170
:102A8000538D448D252F30E0842F90E0821B930BD3
:102A9000541710F0CF9608950197089589EA92E1AE
:102AA000892B41F080E090E0892B21F00E94A9124F
:102AB00081110DC080E090E0892B71F080E090E002
:102AC000892B51F00E940000811104C008950E94DA
:102AD0000000F0CF0C9400000895FC01848DDF010C
:102AE000A80FB11DA35ABF4F2C91848D90E0019681
:102AF0008F739927848FA689B7892C93A089B18970
:102B00008C91837080648C93938D848D981306C010
:102B10000288F389E02D80818F7D80830895EF9274
:102B2000FF920F931F93CF93DF93EC0181E0888F87
:102B30009B8D8C8D981305C0E889F989808185FD6E
:102B400026C0F62E0B8D10E00F5F1F4F0F7311275D
:102B5000E02E8C8DE8120CC00FB607FCFACFE88986
:102B6000F989808185FFF5CFCE010E946D15F1CFE7
:102B70008B8DFE01E80FF11DE35AFF4FF0829FB7E6
:102B8000F8940B8FEA89FB89808180620AC09FB725
:102B9000F894EE89FF896083E889F98980818370E0
:102BA000806480839FBF81E090E0DF91CF911F918F
:102BB0000F91FF90EF900895CF93DF93EC01888DF4
:102BC0008823C9F0EA89FB89808185FD05C0A88931
:102BD000B9898C9186FD0FC00FB607FCF5CF8081B7
:102BE00085FFF2CFA889B9898C9185FFEDCFCE0101
:102BF0000E946D15E7CFDF91CF91089508950E944F
:102C00009B1688F09F5798F0B92F9927B751B0F0CD
:102C1000E1F0660F771F881F991F1AF0BA95C9F760
:102C200014C0B13091F00E94B516B1E008950C9433
:102C3000B516672F782F8827B85F39F0B93FCCF3E6
:102C4000869577956795B395D9F73EF490958095DD
:102C5000709561957F4F8F4F9F4F0895E89409C0FD
:102C600097FB3EF490958095709561957F4F8F4FBF
:102C70009F4F9923A9F0F92F96E9BB279395F695D5
:102C8000879577956795B795F111F8CFFAF4BB0F53
:102C900011F460FF1BC06F5F7F4F8F4F9F4F16C0B7
:102CA000882311F096E911C0772321F09EE8872F41
:102CB000762F05C0662371F096E8862F70E060E0FD
:102CC0002AF09A95660F771F881FDAF7880F969576
:102CD000879597F9089597F99F6780E870E060E01D
:102CE00008959FEF80EC089500240A9416161706A5
:102CF00018060906089500240A94121613061406ED
:102D000005060895092E0394000C11F4882352F04F
:102D1000BB0F40F4BF2B11F460FF04C06F5F7F4F07
:102D20008F4F9F4F089557FD9058440F551F59F0EE
:102D30005F3F71F04795880F97FB991F61F09F3FA8
:102D400079F087950895121613061406551FF2CFD1
:102D50004695F1DF08C0161617061806991FF1CF21
:102D600086957105610508940895E894BB27662748
:102D70007727CB0197F908950E94CF160C948216FD
:102D80000E94741638F00E947B1620F0952311F0F3
:102D90000C946B160C94711611240C94B6160E94A8
:102DA000931670F3959FC1F3950F50E0551F629FE6
:102DB000F001729FBB27F00DB11D639FAA27F00D94
:102DC000B11DAA1F649F6627B00DA11D661F829FBB
:102DD0002227B00DA11D621F739FB00DA11D621FA0
:102DE000839FA00D611D221F749F3327A00D611DBD
:102DF000231F849F600D211D822F762F6A2F11249F
:102E00009F5750409AF0F1F088234AF0EE0FFF1FD1
:102E1000BB1F661F771F881F91505040A9F79E3F28
:102E2000510580F00C946B160C94B6165F3FE4F3DA
:102E3000983ED4F3869577956795B795F795E7957E
:102E40009F5FC1F7FE2B880F911D9695879597F987
:102E50000895991B79E004C0991F961708F0961BF6
:102E6000881F7A95C9F780950895AA1BBB1B51E16D
:102E700007C0AA1FBB1FA617B70710F0A61BB70BEA
:102E8000881F991F5A95A9F780959095BC01CD018F
:102E9000089597FB072E16F4009407D077FD09D00C
:102EA0000E94351707FC05D03EF4909581959F4F01
:102EB0000895709561957F4F0895EE0FFF1F0024D0
:102EC000001C0BBE0790F691E02D09940E9471172B
:102ED000A59F900DB49F900DA49F800D911D11246E
:102EE0000895A29FB001B39FC001A39F700D811DE3
:102EF0001124911DB29F700D811D1124911D089503
:102F0000FB01DC0102C005900D9241505040D8F702
:102F10000895DC0101C06D9341505040E0F70895E1
:102F20004532510520F4423010F00C949B17FB0100
:102F30001082CB010895BB274A3031F4992322F443
:102F4000BDE2909581959F4F0C94A717BB27FB017D
:102F50005527AA27880F991FAA1FA41710F0A41B92
:102F600083955051B9F7A05DAA3308F0A95DA193EC
:102F7000009779F7B111B1931192CB010C94C0175E
:102F8000DC01FC01672F71917723E1F7329704C0D0
:102F90007C916D9370836291AE17BF07C8F308955B
:042FA000F894FFCFD3
:102FA40021323324253627222829717765727479D2
:102FB40075695B5D3D2B2D6667686A3A3F08007A48
:102FC400786376626E050004000D0000013C3E6DDE
:102FD4000203F0F1F2F3F4F5F6F7F8F93132333491
:102FE40035363738393051574552545955494F5071
:102FF4004153444647484A4B4C08005A58435642AA
:103004004E050004000D00005F2C2E4D0203F0F16C
:10301400F2F3F4F5F6F7F8F931323334353637385C
:10302400393071776572747975696F70617364662C
:1030340067686A6B6C08007A786376626E050004D0
:10304400000D0000202C2E6D0203F0F1F2F3F4F5D4
:10305400F6F7F8F960606060606060600B120C0065
:103064001BC023EA242A2500261F2C882D312E0973
:1030740018003930304D487A2062616E6400343073
:10308400304D487A2062616E64003330304D487AA6
:103094002062616E64004E4152524F5700554C54A9
:1030A4005241574944450048656967746820544152
:1030B4004C4C004865696774682053484F5254006B
:1030C400767363726F6C6C2B2B00767363726F6C08
:1030D4006C2D2D004D617820686F6C640050657212
:1030E40073697374656E636500496E697469616CB4
:1030F400697A656420646973706C61792E00636316
:103104003131303120696E69742100496E69746906
:10311400616C697A656420726164696F2100004A98
:1031240092FFE4F1F3E2E1D7A0A5D5D4E6B7B6B5B2
:10313400B4E00D0A006E616E00696E66006F76661B
:1031440000000000008F15E0123F15DC1511152B4F
:04315400151D150030
:00000001FF
